:060000000A128A118B2E8A
:100D160083010A128A11DB2E831203138C1E8F2E77
:100D26001A080800F000831203130C1E962E700892
:100D360099000800F5008517AD2EF5008513803E55
:100D4600AD2E01308513AD260A128A110230F0004D
:100D5600F101BF2EF400F001F00AF101BF26740E76
:100D66000F398312031388000517051374080F390A
:100D76008800051705130800F201F30173087102D4
:100D8600031DC72E72087002031C0800D0260A1223
:100D96008A11F20A0319F30AC12E013083160313CE
:100DA60081000730831281000B1DD72E0B1108001E
:100DB60083160317880189018B01031385018601B8
:100DC60088018312033085130513891088000A30C1
:100DD60005170513F000F1010A128A11BF260A123F
:100DE6008A11831203130A3005170513F000F10167
:100DF6000A128A11BF260A128A11831203130A30B5
:100E060005170513F000F1010A128A11BF260A120E
:100E16008A11023083120313880028300517051340
:100E26000A128A11AD260A128A110C300A128A1188
:100E3600AD260A128A110A128A11A4260A128A11EA
:100E460006300A128A11AD260A128A1183167030EC
:100E5600871707138F000C30990090308312980083
:100E660020308316980003178701F430F000013014
:100E7600F1000A128A11BF260A128A110130831262
:100E860003138500FF3085003030F700F80177083E
:100E96000A128A1195260A128A111430F000F101FD
:100EA6000A128A11BF260A128A11F70A0319F80ACA
:100EB6007808803AFF0080307F02031D642F3A30A5
:100EC6007702031C4A2F0D300A128A1195260A1240
:100ED6008A110A300A128A1195260A128A1161307D
:100EE600F900FA0179080A128A1195260A128A115E
:100EF6001430F000F1010A128A11BF260A128A1173
:100F0600F90A0319FA0A7A08803AFF0080307F024C
:100F1600031D8F2F7B307902031C752F0D300A12AB
:100F26008A1195260A128A110A300A128A11952602
:100F36000A128A118501E830F0000330F1000A1226
:100F46008A11BF260A128A110A128A118F260A12DC
:100F56008A11F60076080A128A1195260A128A1153
:100F66000D300A128A1195260A128A110A300A12BF
:100F76008A1195260A128A1100300A128A11A026B1
:100F86000A128A1176080A128A119D260A128A11F5
:100F9600F430F0000130F1000A128A11BF260A125D
:100FA6008A116130FB00FC017B080A128A11952622
:100FB6000A128A111430F000F1010A128A11BF26B2
:100FC6000A128A11FB0A0319FC0A7C08803AFF0000
:100FD60080307F02031DF12F7B307B02031CD72F4D
:100FE6000D300A128A1195260A128A110A300A123F
:0A0FF6008A1195260A128A11A72F0E
:04400E00D4E0FFFFFC
:00000001FF
