:100000000A128A11622BFF1B0D2883137F18831796
:100010000008840A0319FF0A080000308A00040857
:10002000840A82070034013400340A340034643412
:100030000034E83403341034273445346C3420342D
:10004000763461346C346F347234203465347334F4
:0C0050003A342534693420342034003464
:1006A400F000831203130C1E532B700899000800EA
:1006B40064008001840A04060319003404065B2BD9
:1006C4004730831384005A300A128A115A23830153
:1006D4000A128A11492EF100F201F301720871071E
:1006E400F000840083138001F20A0319F30A7308EB
:1006F400803AFF0080307F02031D822B113072028A
:10070400031C702BF401F501A7230A128A11F600C9
:100714000A3A0319080076080D3A03190800740808
:100724007107F0008400760883138000F40A03192B
:10073400F50A7508803AFF0080307F02031DA42B60
:100744001030740203180800862B831203138C1EC6
:10075400A72B1A080800F5008513803ED92B8312B5
:10076400031301308513D9230A128A110230F000D1
:10077400F101EB2B85177608FF00750884000A1237
:100784008A1103200A128A11003803190800760816
:10079400FF00750884000A128A1103200A128A11C4
:1007A400D9230A128A11F50A0319F60ABD2BF4009B
:1007B400F001F00AF101EB23740E0F3983120313D5
:1007C40088000517051374080F39880005170513E9
:1007D4000800F201F30173087102031DF32B720880
:1007E4007002031C0800FC230A128A11F20A03197E
:1007F400F30AED2B013083160313810007308312B3
:1008040081000B1D032C0B110800FD007D088400E2
:100814000008203A031D102CFD0A082C7D088400D2
:100824000008093A03190E2CFB01FC01FA017D08AA
:10083400840000082D3A031D212CFA0A4B2C7D0854
:10084400840000082B3A03194B2C7D08840000080F
:1008540061240A128A11031C4D2C7D0884007C0833
:10086400F1007B08F0000A30F200F3016F240A1251
:100874008A1100087007F80000300318013071076E
:10088400F9007808D03EFB0079080318013EFF3ECA
:10089400FC00FD0A272C7A0803195C2C7B09F8005C
:1008A4007C09F900F80A0319F90A7808F6007908AE
:1008B400F70008007C08F7007B08F6000800F10048
:1008C4003A30F001710203186D2C30307102031CB0
:1008D4006D2CF001F00A700C0800F401F501701C95
:1008E400792C7208F4070318F50A7308F507031046
:1008F400F20DF30D0310F10CF00C71087004031DDC
:10090400712C7508F1007408F0000800FB01F91F50
:10091400922CF809F909F80A0319F90AFB01FB0AF0
:100924007808F0007908F1008E30F201F3007B08BA
:10093400F40012257008F8007108F9007208FA0032
:1009440008002008A6002108A7002208A800031018
:10095400270D280DA900A908031DB42CA001A1018D
:10096400A20108002308A6002408A7002508A8005F
:100974000310270D280DAE00AE08031DC52CA001E1
:10098400A101A20108002E087B3EA9072208AE009F
:100994002508AE068030AE050730A117A417A501BF
:1009A400AA01AB01AC01AD00201CE02C23085025AA
:1009B4000A128A110318250A031DAC070310A20C9E
:1009C400A10CA00C0310A30DA40DA50DAD0BD62CEA
:1009D4000930AD00201CF62C230850250A128A1178
:1009E4000318250A031DAC070310A20CA10CA00CCC
:1009F4000310AC0CAB0CAA0CAD0BEC2C2A08F000C9
:100A04002B08F1002C08F2002908F3002E08F4004A
:100A140012257008A0007108A1007208A200080045
:100A2400730803191A2D720871047004031D232D11
:100A3400F001F101F2010800F30A0310F20CF10CC9
:100A4400F00CFE3072050319322D1E2DF30AF00A44
:100A54000319F10A0319F20A0310F20CF10CF00C59
:100A6400FF30720503193C2D282DF3030310F00DFC
:100A7400F10DF20DF11F372D731CF1130310F30C5C
:100A84007308F700F601F5017508F0047608F1041F
:100A94007708F2047408031DF2170800AA07240853
:100AA40003110318240A031DAB07250803110800CA
:100AB400AA002130A3002008A00A84000A128A1187
:100AC4000D200A128A11AB00AB080319F02D2B0874
:100AD400253A0319722D2A0843260A128A115D2D1C
:100AE400A4012008A00A84000A128A110D200A1207
:100AF4008A11AB00003A0319F02D643A0319862DCC
:100B04000D3A0319862D5D2D2308840083130008F4
:100B1400A600840A0008A700A30AA30AA71F992D08
:100B24000330A404A609A709A60A0319A70AAB015E
:100B3400AB0A03102B0D013E84000A128A110D200A
:100B44000A128A11FC000A128A110D200A128A1153
:100B5400FD002702031DB02D7C082602031CB72DBF
:100B6400AB0A2B08053A031D9B2D240803390319EE
:100B7400C12D2A0884002D3083138000AA0A2B0873
:100B8400A500EC2D0A30F700F8010310250D013EF5
:100B940084000A128A110D200A128A11F0000A1226
:100BA4008A110D200A128A11F1002708F300260881
:100BB400F200F5250A128A117108FA007008F9008A
:100BC4001F260A128A117708303EAB002A084326F2
:100BD4000A128A11A503250FC42D5D2D2A0884004D
:100BE400831380010800F401F501710870040319EE
:100BF4001A2EF601F60AF11B032E0310F00DF10D67
:100C0400FC2D0310F40DF50D71087302031D0C2E59
:100C140070087202031C162E7008F2027108031C7D
:100C2400F303F30274140310F10CF00CF60B032E0F
:100C34007508F1007408F0000800780877040319B7
:100C44003E2EFB01FB0AF81B2B2E0310F70DF80DAB
:100C5400242E78087A02031D312E77087902031CAA
:100C64003A2E7708F9027808031CFA03FA020310F3
:100C7400F80CF70CFB0B2B2E7A08F8007908F70018
:100C8400080084002B0883138000AA0A0800831636
:100C94000317880189010313850186018801033044
:100CA40089009F01FF309200C030831297009D009D
:100CB4000F30921412141215851305138910F000C5
:100CC400F1010A128A11EB230A128A1103308312EA
:100CD400031388000A3005170513F000F1010A1206
:100CE4008A11EB230A128A11831203130A3005179F
:100CF4000513F000F1010A128A11EB230A128A117A
:100D0400831203130A3005170513F000F1010A12C8
:100D14008A11EB230A128A1102308312031388000A
:100D24002830051705130A128A11D9230A128A11C9
:100D34000C300A128A11D9230A128A110A128A1152
:100D4400B1230A128A1106300A128A11D9230A120F
:100D54008A1183167030871707138F000C3099009F
:100D6400903083129800203083169800031787016F
:100D7400F430F0000130F1000A128A11EB230A1258
:100D84008A110130831203138500FF30850030304F
:100D9400C100C2018312031341080A128A115223AB
:100DA4000A128A111430F000F1010A128A11EB239D
:100DB4000A128A1183120313C10A0319C20A4208D0
:100DC400803AFF0080307F02031DEA2E3A30410250
:100DD400031CCC2E0D300A128A1152230A128A11D6
:100DE4000A300A128A1152230A128A116130C3008E
:100DF400C4018312031343080A128A1152230A12EC
:100E04008A111430F000F1010A128A11EB230A123C
:100E14008A1183120313C30A0319C40A4408803ACB
:100E2400FF0080307F02031D192F7B304302031C17
:100E3400FB2E0D300A128A1152230A128A110A302B
:100E44000A128A1152230A128A118501E830F0002D
:100E54000330F1000A128A11EB230A128A1130308E
:100E64000A128A116D230A128A110A128A11B123F5
:100E74000A128A11D530831203139F009F149F18FE
:100E8400412F1E08C700C8010310C70DC80D031069
:100E9400C70DC80D83161E088312AF000630031059
:100EA400AF0CFF3E031D512F2F08C7041E089500E9
:100EB4002830A000A030A1003B30A2004808F9006F
:100EC4004708F8000A128A1188240A128A1178083D
:100ED400A3007908A4007A08A5000A128A11A324A1
:100EE4000A128A110B30A0004808A2004708A1008A
:100EF40030300A128A115A250A128A11C50145088E
:100F0400303E840000080A128A1152230A128A1100
:100F14001130C50A4502031C812FC830F000F101CD
:100F24000A128A11EB230A128A110D300A128A114D
:100F340052230A128A110A300A128A1152230A12FF
:100F44008A1149300A128A116D230A128A118312F6
:100F54000313C6014608493E8400831300080A129D
:100F64008A1152230A128A110F30C60A4602031C40
:100F7400AC2FC830F000F1010A128A11EB230A12D7
:100F84008A1149300A128A1107240A128A11760832
:100F940083120313860000300A128A11AD230A1249
:100FA4008A114930F500F6010A128A11BC230A128B
:100FB4008A1140300A128A11AD230A128A113F089D
:100FC400F5008030F6000A128A11BC230A128A1135
:100FD400D030F0000730F1000A128A11EB230A1214
:100FE4008A110D300A128A1152230A128A110A3008
:0C0FF4000A128A1152230A128A11372FA8
:04400E00D4E0FFFFFC
:00000001FF
