:100000000A128A110328CC3083138400E2300A12CA
:100010008A15042283010A128A153C2E8316B00029
:100020005330A40083125208D20A84000A128A159F
:1000300000200A128A118316B600B60803192C2B69
:100040003608253A03192828300884003608282B5A
:10005000A501A6012D2826153F2883125208D20A91
:1000600084000A128A1500200A128A118316B6002B
:10007000003A03192C2B663A03192B2812288312F5
:100080000730D601831626058312D70056040319BC
:10009000202B06308316A700A801240884008313B0
:1000A0000008B300840A0008B400840A0008B50000
:1000B0000330A4073308F0003408F1003508F200DB
:1000C000F301F401F50100260A128A1103187928B8
:1000D0003308F0003408F1003508F200F8270A125E
:1000E0008A117008B3007108B4007208B5000330BB
:1000F000A504B101B20135083404330403191029F1
:10010000B330840000088312D600840A0008D700A8
:10011000840A0008D800840A0008D9000F300310B0
:10012000D90CD80CD70CD60CFF3E031D8F285708CE
:100130008316B200831256088316B1008230B201D2
:10014000B107031CB203FF30B107031CB203033035
:10015000F000F1013208F3003108F200C5260A125E
:100160008A117108B2007008B1000A30F600F70178
:100170003208F9003108F800C3240A128A117708FE
:10018000B2007608B100B21FC928FF30B107031CC6
:10019000B2033103FF3A31230A128A1122270A12CD
:1001A0008A113A270A128A1183162D088312B00089
:1001B00083162E088312B10083162F088312B20013
:1001C00045250A128A112D088316AD0083122E08C8
:1001D0008316AE0083122F088316AF0078270A1209
:1001E0008A118030F301F4003F30F50000260A1236
:1001F0008A1103180029FF30B107031CB20310292C
:1002000078270A128A112030F301F4004130F500FA
:1002100000260A128A11031C1029B10A0319B20A16
:1002200006300A128A15EA240A128A114808BC000C
:100230004908BD004A08BE00831633088312BF0078
:10024000831634088312C000831635088312C10058
:100250000A128A1528240A128A113C088316B30050
:1002600083123D088316B40083123E088316B5003E
:100270003208803AFF0080307F02031D41290A3096
:10028000310203186229AD273508340433040319F9
:10029000A12933082F270A128A112C260A128A1143
:1002A0002308220421042004031DA12983163208F7
:1002B000803AFF0080307F02031D60290230310246
:1002C000031CA129AD2778270A128A117030F30088
:1002D0008930F4004030F50000260A128A11031814
:1002E0007329F7307429F830B107031CB2033108C1
:1002F00031230A128A112227F0003408F100350850
:10030000F2002D08F3002E08F4002F08F5000A1261
:100310008A15D8220A128A1173088316A30072085C
:10032000A2007108A1007008A0002308AC002208F8
:10033000AB002108AA002008A900B301B401B5014F
:10034000DE29AD2733082F270A128A112C260A121C
:100350008A11F0268316A9002C08FB002B08FA004E
:100360002A08F9002908F8000A128A1529220A1217
:100370008A1178088312C8007908C9007A08CA006F
:10038000831633088312CB00831634088312CC0003
:10039000831635088312CD000A128A1512240A1218
:1003A0008A1148088316B300831249088316B400E3
:1003B00083124A088316B500B101B201B601B60A2C
:1003C000DE260A128A1500200A128A11D7000A12A4
:1003D0008A1500200A128A11D8000A128A150020F4
:1003E0000A128A11D9000A128A1500200A128A11EB
:1003F000DA0083162C02031D0D2A83125908831676
:100400002B02031D0D2A8312580883162A02031D8E
:100410000D2A8312570883162902031C142AB60AD0
:1004200036080A3A031DE0292508033903194A2A28
:10043000300884002D30462AE8260A128A11DE266A
:100440000A128A1500200A128A11F0000A128A156F
:1004500000200A128A11F1000A128A1500200A12DD
:100460008A11F2000A128A1500200A128A11452701
:100470000A128A11B0270A128A115B270A128A11FE
:1004800087260A128A116F270A128A1183138000A5
:100490008316B00AB603360F1C2A3208803AFF00D2
:1004A00080307F02031D562A01303102031C612A6D
:1004B000AD273008A6270A128A11B107031CB20320
:1004C0004D2AAD272808803AFF0080307F02031DA7
:1004D0006B2A09302702031C702A0830AD27722AC4
:1004E000AD272708B6008312D600D701D61BD70345
:1004F0008316A702831257088316031CA803A802B9
:1005000036080319892A300884002E3083138000AE
:10051000B00A360831230A128A113C08B0003D089F
:10052000B1003E08B200831633083A270A128A1136
:1005300045250A128A112D08A0002E08A1002F08B7
:10054000A2002C260A128A11F0260A128A110F2BF9
:10055000E8260A128A11DE260A128A1500200A12DB
:100560008A11F0000A128A1500200A128A11F1007D
:100570000A128A1500200A128A11F2000A128A153C
:1005800000200A128A1145270A128A11B0270A127E
:100590008A115B270A128A1187260A128A116F278D
:1005A0000A128A11831380008316B00ADE260A120B
:1005B0008A1500200A128A11A0000A128A1500204A
:1005C0000A128A11A1000A128A1500200A128A1141
:1005D000A2000A128A1500200A128A11A3008316AB
:1005E0002C088312A70083162B088312A6008316FB
:1005F0002A088312A500831629088312A4008726DF
:100600000A128A1123088316AC008312220883166B
:10061000AB00831221088316AA00831220088316D8
:10062000A900B603360FA82A2808270403191228A0
:100630003008A6270A128A11A707031CA803142B47
:1006400083162508033903191228300884002D3039
:1006500083138000B00A12283008840083138001BD
:1006600008008312C600C61FFD2BC609C60A46082D
:10067000803A123E031CA12B0A3050270A128A111D
:1006800008250A128A117108F9007008F800C324BD
:100690000A128A117F271C3E84000A128A15002044
:1006A0000A128A11AD000A128A1500200A128A1154
:1006B000AE000A128A1500200A128A118F270A1228
:1006C0008A11F81BF903C3240A128A111327373E33
:1006D00084000A128A1500200A128A11B0000A1238
:1006E0008A1500200A128A11B1000A128A15002008
:1006F0000A128A11B20045250A128A11FE260A1230
:100700008A11F21BF30308250A128A110B27013EF6
:1007100084000A128A1500200A128A11AD000A12FA
:100720008A1500200A128A11AE000A128A150020CA
:100730000A128A1187270A128A1145250A128A117C
:100740001B2F4608803A753E031CE62B0A30F0004A
:10075000F1014608F200F301F21BF30308250A1227
:100760008A110B27013E84000A128A1500200A1202
:100770008A11AD000A128A1500200A128A11AE00F1
:100780000A128A1500200A128A1197270A128A1162
:10079000F81BF903C3240A128A1113271C3E840094
:1007A0000A128A1500200A128A11B0000A128A154C
:1007B00000200A128A11B1000A128A1500200A12BA
:1007C0008A11B20045250A128A111B2F0330F90045
:1007D0004608B425013E84000A128A1500200A1238
:1007E0008A11BC000A128A1500200A128A11BD0063
:1007F0000A128A150020BE0008004608803A123E00
:10080000031C672C0A3050270A128A1108250A1285
:100810008A117108F9007008F800C3240A128A11BD
:100820007F27433E84000A128A1500200A128A118B
:10083000AD000A128A1500200A128A11AE000A12AF
:100840008A1500200A128A118F270A128A11F81BB2
:10085000F903C3240A128A1113275E3E84000A1288
:100860008A1500200A128A11B0000A128A15002087
:100870000A128A11B1000A128A1500200A128A117E
:10088000B20045250A128A11FE260A128A11F21BAD
:10089000F30308250A128A110B27283E84000A1246
:1008A0008A1500200A128A11AD000A128A1500204A
:1008B0000A128A11AE000A128A1500200A128A1141
:1008C00087270A128A1145250A128A111B2F46080A
:1008D000803A753E031CAC2C0A30F000F10146084A
:1008E000F200F301F21BF30308250A128A110B2709
:1008F000283E84000A128A1500200A128A11AD00CF
:100900000A128A1500200A128A11AE000A128A15EC
:1009100000200A128A1197270A128A11F81BF9037C
:10092000C3240A128A111327433E84000A128A152F
:1009300000200A128A11B0000A128A1500200A1239
:100940008A11B1000A128A1500200A128A11B20017
:1009500045250A128A111B2F0330F9004608B425D9
:10096000283E84000A128A1500200A128A11BC004F
:100970000A128A1500200A128A11BD000A128A156D
:100980000020BE000800FB01F71FCD2CF609F70977
:10099000F60A0319F70AFB01FB0AF91FD62CF8091E
:1009A000F909F80A0319F90A0130FB06FC01FD01F7
:1009B000770876040319FB2CFA01FA0AF71BE42CDA
:1009C0000310F60DF70DDD2C0310FC0DFD0D77085F
:1009D0007902031DED2C76087802031CF72C7608AB
:1009E000F8027708031CF903F9027C140310F70CD2
:1009F000F60CFA0BE42C7B080319032DFC09FD0906
:100A0000FC0A0319FD0A7D08F7007C08F6000800BF
:100A1000F501F31F122DF209F309F20A0319F30A83
:100A2000F501F50AF11F192DF009F109F00A031972
:100A3000F10A710870040319382DF401F40AF11B4E
:100A4000252D0310F00DF10D1E2D71087302031DED
:100A50002B2D70087202031C342D7008F2027108ED
:100A6000031CF303F3020310F10CF00CF40B252D1F
:100A700075080319402DF209F309F20A0319F30A64
:100A80007308F1007208F00008002D08B3002E086A
:100A9000B4002F08B5000310340D350DB600B608AC
:100AA000031D562DAD01AE01AF0108003008B300A3
:100AB0003108B4003208B5000310340D350DBB0009
:100AC000BB08031D672DAD01AE01AF0108003B0857
:100AD0007B3EB6072F08BB003208BB068030BB0543
:100AE0000730AE17B117B201B701B801B901BA00AA
:100AF0002D1C822D300865270A128A110318320A2C
:100B0000031DB9070310AF0CAE0CAD0C0310B00DF4
:100B1000B10DB20DBA0B782D0930BA002D1C982DED
:100B2000300865270A128A110318320A031DB90713
:100B30000310AF0CAE0CAD0C0310B90CB80CB70C15
:100B4000BA0B8E2D3708F0003808F1003908F20092
:100B50003608F3003B08F400C2257008AD007108A8
:100B6000AE007208AF000800FB00FA0179087B189C
:100B7000FA070310F90D0310FB0CFB08031DB62D3B
:100B80007A08080073080319CA2D720871047004EA
:100B9000031DD32DF001F101F2010800F30A031047
:100BA000F20CF10CF00CFE3072050319E22DCE2D83
:100BB000F30AF00A0319F10A0319F20A0310F20CFE
:100BC000F10CF00CFF3072050319EC2DD82DF30356
:100BD0000310F00DF10DF20DF11FE72D731CF11351
:100BE0000310F30C7308F700F601F5017508F00423
:100BF0007608F1047708F2047408031DF217080060
:100C0000F21F0F2E7008003CF0007108031C710FDA
:100C1000003CF1007208031C720F803CF200F51FCB
:100C20001E2E7308003CF3007408031C740F003C74
:100C3000F4007508031C750F803CF5008030F20647
:100C4000F50675087202031D080074087102031D81
:100C500008007308700208009F270A128A11031007
:100C6000250D260DAC00AC08031D3B2EA001A101F3
:100C7000A201A30108009F270A128A11173003104E
:100C8000A60CA50CA40CFF3E031D3F2E2408A700B4
:100C9000A117A2012008A8002108A9002208AA0083
:100CA0008E30AB01AC02AC1F622E2C08803A8F3E16
:100CB000031C362E0310AB0CAA0CA90CA80CAC0F0D
:100CC0005A2E702E18302C020318362EAC08031939
:100CD000702E0310A80DA90DAA0DAB0DAC03662E46
:100CE000270803197E2EA809A909AA09AB09A80A91
:100CF0000319A90A0319AA0A0319AB0A2B08A300AE
:100D00002A08A2002908A1002808A000080023083A
:100D10002204210420040319BC2EFD01FD0AA31B9B
:100D2000972E0310A00DA10DA20DA30D8E2E23084A
:100D30002702031DA52E22082602031DA52E210829
:100D40002502031DA52E20082402031CB62E200810
:100D5000A4022108031C210FA5022208031C220F54
:100D6000A6022308031C230FA7020310A30CA20C46
:100D7000A10CA00CFD0B972E2708A3002608A200AB
:100D80002508A1002408A0000800F401F501701C4A
:100D9000CF2E7208F4070318F50A7308F50703103D
:100DA000F20DF30D0310F10CF00C71087004031D2B
:100DB000C72E7508F1007408F00008003608831289
:100DC000D6000310D60D0310560D4F3E84000800C8
:100DD0000A308312A000A101A201A301831608001A
:100DE00023088316AC00831222088316AB008312FB
:100DF00021088316AA008312200808002D08C300CA
:100E00002E08C4002F08C5000A30F000F101460882
:100E1000F200F30108007008BF007108C0003F082D
:100E20003F073F0708007608C1007708C200410865
:100E30004107410708002D08BC002E08BD002F08FF
:100E4000BE0008003C088316AD0083123D088316DF
:100E5000AE0083123E088316AF00330808008312E9
:100E6000A000831634088312A1008316350883126C
:100E7000A20008008312AD00831634088312AE006E
:100E8000831635088312AF000800F30083162C0880
:100E9000F7002B08F6002A08F5002908F4000800DE
:100EA000F600F7014608F200F301F21BF303643089
:100EB000F000F101080073088312A7007208A60071
:100EC0007108A5007008A4000800B70731080311D5
:100ED0000318310A031DB80732080311080020085F
:100EE000303ED7008316300884008312570808006C
:100EF0002D08F0002E08F1002F08F20008007608F7
:100F0000BF007708C0003F083F073F070800AF0059
:100F10004308B0004408B1004508B2000800AF0023
:100F20006430F600F7014608F800F9010800AF0048
:100F30000A30F600F7014608F800F9010800200819
:100F4000A4002108A5002208A60008008400303073
:100F500083138000FF30B00A0800831603130800D3
:100F6000F801F901FA01FB017308720471047004BD
:100F70000319EF2FFC01FC0AF31BC42F0310F00D23
:100F8000F10DF20DF30DBB2F0310F80DF90DFA0D55
:100F9000FB0D73087702031DD72F72087602031D1D
:100FA000D72F71087502031DD72F70087402031C18
:100FB000E92F7008F4027108031C710FF502720822
:100FC000031C720FF6027308031C730FF7027814E8
:100FD0000310F30CF20CF10CF00CFC0BC42F7B088B
:100FE000F3007A08F2007908F1007808F0000800B0
:100FF000720871047004031908008030F2060800BA
:1010000008308A000408840A8207003400348034DF
:101010003F34CD34CC343D34D73423343C341234D3
:1010200083343A34B734D1343834C634273437347F
:10103000383486343534C034D6343334CC342B345D
:101040003234703489343034E734DB342E34E534D0
:101050003C341E344234A2340D34003480343F34E6
:101060000034203441340034C834423400347A34FB
:10107000443440341C3446345034C334473424346C
:1010800074344934973418344B34BC34BE344C3443
:101090006B346E344E340334153450347934AD34FB
:1010A0006034F33449347134013400340034003492
:1010B0000A34003400340034643400340034003422
:1010C000E83403340034003410342734003400345E
:1010D000A034863401340034403442340F340034B8
:1010E00080349634983400340034E134F5340534D7
:1010F0000034CA349A343B3445346C34203476346A
:1011000061346C346F3472342034653473343A345F
:0C111000203425346634203420340034B0
:1013F800F000831203130C1EFD29700899000800E1
:1014080064008001840A0406031900340406052ACE
:10141800FB01F91F162AF809F909F80A0319F90A4C
:10142800FB01FB0A7808F0007908F1008E30F20120
:10143800F3007B08F4000A128A11C2257008F8002C
:101448007108F9007208FA0008008E30FC00FF30BD
:101458007B050319362A0310FB0CFA0CF90CF80C5F
:10146800FC0A2B2A7808F0007908F1007A08F200C3
:101478007C08F300F4010A128A11C2257008F800EA
:101488007108F9007208FA000800F100F201F3018E
:1014980072087107F000840083138001F20A0319AF
:1014A800F30A7308803AFF0080307F02031D5E2A2A
:1014B80011307202031C4C2AF401F50183220A122E
:1014C8008A15F6000A3A0319080076080D3A031936
:1014D800080074087107F000840076088313800000
:1014E800F40A0319F50A7508803AFF0080307F0274
:1014F800031D802A1030740203180800622A831220
:1015080003138C1E832A1A080800F500831203139C
:1015180085137508803EAA2A8312031301308513A8
:10152800AA220A128A150230F000F101BC2AF5003D
:101538008517750884008008031908007508840059
:101548000008AA220A128A15F50A9D2AF400F00159
:10155800F00AF101BC22740E0F39831203138800BC
:101568000517051374080F398800051705130800B7
:10157800F201F30173087102031DC42A7208700294
:10158800031C0800CD220A128A15F20A0319F30A6D
:10159800BE2A0130831603138100073083128100AD
:1015A8000B1DD42A0B1108007008F6007108F7000B
:1015B8007208F8000310770D780D8312A500A508AE
:1015C800031DEB2AF001F101F201F3010800730891
:1015D800F6007408F7007508F8000310770D780D09
:1015E800A400A4080319E62A7F30F117F201F417C2
:1015F800F501A001A101A201A301A50298302407C9
:10160800F600A5021830A4000310A00DA10DA20D2C
:10161800A30D75087202031D172B74087102031DB0
:10162800172B73087002031C252B7308F00274082B
:10163800031C740FF1027508031C750AF2022014CA
:101648000310F00DF10DF20DA40B082BA51F392B7B
:101658002508803A973E031CE62A0310A30CA20C27
:10166800A10CA00CA50F312B472B1830250203180D
:10167800E62AA5080319472B0310A00DA10DA20DFA
:10168800A30DA5033D2B2308F3002208F20021082F
:10169800F1002008F0000800703005240A128A15AD
:1016A8000310780D790D83120313A500A508031DF7
:1016B800622BF001F101F201F301080073300524F7
:1016C8000A128A150310780D790DA400A4080319CD
:1016D8005D2B703084008030840A840A8004703066
:1016E800840A84007330840A840A840A800184008E
:1016F8008030840A840A80047330840A84007F302E
:10170800840A840A840A8001A001A101A201A3011C
:10171800A502A0302407F600A5022030A4007330EB
:101728000310A00DA10DA20DA30D05240A128A1500
:10173800703084000008FA00840A0008FB00840A5C
:101748000008FC00840A0008FD0079087D02031DDA
:10175800B72B78087C02031DB72B77087B02031D83
:10176800B72B76087A02031CD32B733005240A1290
:101778008A157030840076088002840A7708031C72
:10178800770F8002840A7808031C780F8002840A85
:101798007908031C790A800203308402201470300F
:1017A80084000310800D840A800D840A800D840A49
:1017B800800DA40B932BA51FEE2B2508803A9F3E86
:1017C800031C5D2B0310A30CA20CA10CA00CA50FED
:1017D800E62BFC2B2030250203185D2BA5080319E6
:1017E800FC2B0310A00DA10DA20DA30DA503F22B38
:1017F8002308F3002208F2002108F1002008F00075
:10180800080084000008F600840A0008F700840A2B
:101818000008F800840A0008F90008008030CA06A9
:101828004B08BC004C08BD004D08BE004808BF006E
:101838004908C0004A08C10028243C08C8003D08DF
:10184800C9003E08CA0008003C08C2003D08C300A1
:101858003E08C4000310430D440DC7003F08C200F2
:101868004008C3004108C4000310430D440DC600DE
:10187800470803194B2C4608470246080318532CFF
:10188800C2004708C20219304202031C522C3F080A
:10189800BC004008BD004108BE0008004608031906
:1018A8000800470846020318612C4708C20046088A
:1018B800C20219304202031808000630C500BE1BD8
:1018C800C517C11B4517BD17BE01C017C101460882
:1018D80047020318882C0310BF0DC00DC10DC603A5
:1018E800460847060319832CC50345080739031919
:1018F800832C6F2C0310BE0CBD0CBC0CC70A470808
:1019080046060319A42C7E2C470846020318A42C6B
:101918000310BC0DBD0DBE0DC703460847060319CD
:10192800A02CC503450807390319A02C8C2C0310DB
:10193800C10CC00CBF0CC60A47084606031D9B2CE9
:10194800C51FAF2CFF30BC06BD06BE06BC0A031976
:10195800BD0A0319BE0A451FBA2CFF30BF06C006D0
:10196800C106BF0A0319C00A0319C10AC5013C0808
:10197800BF073D08031103183D0A031DC0073E08B1
:10198800031103183E0A031DC107C11FD62CFF30DF
:10199800BF06C006C106BF0A0319C00A0319C10A57
:1019A800C501C50A3F08F0004008F1004108F200EF
:1019B8004708F3004508F4000A128A11C225700886
:1019C800BC007108BD007208BE0008008312D10077
:1019D8006E305102031C752D0330F9000A30F500F2
:1019E8006430F00051080A260A128A15EF250A12F7
:1019F8008A11B4250A128A151C3E84000A128A1517
:101A080000200A128A15AD000A128A1500200A124F
:101A18008A15AE000A128A1500200A128A15AF002C
:101A28000330F9006430F5005108EF250A128A11D5
:101A3800B4250A128A15373E84000A128A15002036
:101A48000A128A15B0000A128A1500200A128A158D
:101A5800B1000A128A1500200A128A15B2000A1269
:101A68008A1145250A128A1535260A128A15033065
:101A7800F9000A30F00051080A260A128A11B42522
:101A88000A128A15013E84000A128A1500200A12D9
:101A98008A15AD000A128A1500200A128A15AE00AE
:101AA8000A128A1500200A128A152D260A128A118E
:101AB80045250A128A152D08CB002E08CC002F08C0
:101AC800CD003F30AD01AE01AF004B08B0004C086F
:101AD800B1004D08B2000A128A1145250A128A156A
:101AE800262E0B305102031CC92D0330F9000A3091
:101AF800F00051080A260A128A11B4250A128A151A
:101B0800013E84000A128A1500200A128A15AD00C7
:101B18000A128A1500200A128A15AE000A128A15BE
:101B280000200A128A15AF000330F9000A30F500C8
:101B38005108EF250A128A11B4250A128A151C3E8B
:101B480084000A128A1500200A128A15B0000A12A7
:101B58008A1500200A128A15B1000A128A15002077
:101B68000A128A15B2000A128A1145250A128A1524
:101B780035260A128A153F30AD01AE012D260A120C
:101B88008A1145250A128A15262E3F30AD01AE016D
:101B9800AF000330F90051080A128A11B4250A125D
:101BA8008A15013E84000A128A1500200A128A1535
:101BB800B0000A128A1500200A128A15B1000A120A
:101BC8008A1500200A128A15B2000A128A114525C0
:101BD8000A128A15262EF600F80175080319082E30
:101BE800F701F70AF51BFB2D0310F50DF52D031072
:101BF800F80D75087602031C052E7508F602781490
:101C08000310F50CF70BFB2D78080800F2000830DC
:101C1800F300F4017208F10007300310F10CFF3EE5
:101C28000310031D122E740D7104F4000310F20D3D
:101C380070087402031C222E7008F402F30B0E2E97
:101C4800740808002D08C8002E08C9002F08CA000B
:101C58000800AF004E08B0004F08B1005008B200AD
:101C680008002D08CE002E08CF002F08D00008004D
:101C780083160317880189010313850186018801EA
:101C8800033089009F01FF309200C0308312970013
:101C98009D000F3092141214121585130513891024
:101CA800F000F1010A128A15BC220A128A150330C3
:101CB8008312031388000A3005170513F000F10199
:101CC8000A128A15BC220A128A15831203130A30D3
:101CD80005170513F000F1010A128A15BC220A1231
:101CE8008A15831203130A3005170513F000F10152
:101CF8000A128A15BC220A128A15023083120313AB
:101D080088002830051705130A128A15AA220A1214
:101D18008A150C300A128A15AA220A128A150A1282
:101D28008A1590220A128A1506300A128A15AA22E2
:101D38000A128A1583167030871707138F000C3024
:101D4800990090308312980020308316980003176A
:101D58008701F430F0000130F1000A128A15BC2224
:101D68000A128A150130831203138500FF3085009B
:101D780030308316C600C7018316031346080A12BB
:101D88008A15FC210A128A151430F000F1010A1292
:101D98008A15BC220A128A1583160313C60A031968
:101DA800C70A4708803AFF0080307F02031DDE2EF5
:101DB8003A304602031CC02E0D300A128A15FC2147
:101DC8000A128A150A300A128A15FC210A128A1583
:101DD80061308316C800C9018316031348080A1224
:101DE8008A15FC210A128A151430F000F1010A1232
:101DF8008A15BC220A128A1583160313C80A031906
:101E0800C90A4908803AFF0080307F02031D0E2F5F
:101E18007B304802031CF02E0D300A128A15FC2173
:101E28000A128A150A300A128A15FC210A128A1522
:101E38008501E830F0000330F1000A128A15BC224F
:101E48000A128A15B7300A128A1549220A128A1507
:101E58000A128A1590220A128A15D53083120313A2
:101E68009F009F149F18362F1E088316CF00D0019D
:101E78000310CF0DD00D0310CF0DD00D1E08831207
:101E8800DB0006300310DB0CFF3E031D462F5B080A
:101E98008316CF0483121E0895002830AD00A030A9
:101EA800AE003B30AF0083165008F9004F08F80029
:101EB8000A128A150C220A128A1578088312B000B1
:101EC8007908B1007A08B2000A128A1145250A1267
:101ED8008A152D088316CC0083122E088316CD0090
:101EE80083122F088316CE0077308312D200831610
:101EF8004C088312D30083164D088312D40083162E
:101F08004E088312D500B7300A128A110E200A1221
:101F18008A15CA014A08B73E840000080A128A15C1
:101F2800FC210A128A1583161130CA0A4A02031CB8
:101F38008E2FC830F000F1010A128A15BC220A124D
:101F48008A150D300A128A15FC210A128A150A30E0
:101F58000A128A15FC210A128A15D1300A128A152A
:101F680049220A128A1583160313CB014B08D13E66
:101F78008400831300080A128A15FC210A128A15A4
:101F880083160F30CB0A4B02031CBA2FC830F0005F
:101F9800F1010A128A15BC220A128A1500300A12A7
:101FA8008A1589220A128A15D1300A128A159B22AB
:101FB8000A128A1540300A128A1589220A128A15CD
:101FC800B7300A128A159B220A128A15D030F000FF
:101FD8000730F1000A128A15BC220A128A150D3040
:101FE8000A128A15FC210A128A150A300A128A1561
:081FF800FC210A128A152C2FAE
:04400E00D4E0FFFFFC
:00000001FF
