:100000000A128A119B2AFF1B0D2883137F1883175E
:100010000008840A0319FF0A080000308A00040857
:10002000840A82070034013400340A340034643412
:100030000034E83403341034273450344F3452340D
:10004000543441342034653473343A3425346434C0
:100050002034003441344434433420346534733420
:100060003A342534693420342034003450344F3449
:100070005234543442343A342034253473342034E6
:1000800020340034503457344D34203465347334C4
:100090003A342034253473342034003428346E3418
:1000A00075346C346C342934003468344F344C3437
:0400B00041340034A3
:10051600F000831203130C1E8C2A70089900080041
:1005260064008001840A0406031900340406942A30
:100536004C30831384005F300A128A1193228301A0
:100546000A128A11B22DF100F201F3017208710745
:10055600F000840083138001F20A0319F30A73087A
:10056600803AFF0080307F02031DBB2A11307202E1
:10057600031CA92AF401F501E0220A128A11F600E9
:100586000A3A0319080076080D3A03190800740898
:100596007107F0008400760883138000F40A0319BB
:1005A600F50A7508803AFF0080307F02031DDD2AB8
:1005B6001030740203180800BF2A831203138C1E1E
:1005C600E02A1A080800F500831203138813750839
:1005D600803E102B831203130130881310230A1256
:1005E6008A110230F000F101222BF50088177508F8
:1005F60084000A128A110D200A128A110038031982
:100606000800750884000A128A110D200A128A1140
:1006160010230A128A11F50AFA2AF400F001F00AE8
:10062600F1012223740E0F39831203138800081771
:10063600081374080F398800081708130800F20118
:10064600F30173087102031D2A2B72087002031C42
:10065600080033230A128A11F20A0319F30A242B1B
:1006660001308316031381000730831281000B1DAE
:100676003A2B0B110800FD007D0884000008203A83
:10068600031D472BFD0A3F2B7D0884000008093A0D
:100696000319452BFB01FC01FA017D0884000008C3
:1006A6002D3A031D582BFA0A822B7D088400000878
:1006B6002B3A0319822B7D088400000898230A121E
:1006C6008A11031C842B7D0884007C08F1007B08BA
:1006D600F0000A30F200F301A6230A128A1100087C
:1006E6007007F8000030031801307107F900780828
:1006F600D03EFB0079080318013EFF3EFC00FD0AD0
:100706005E2B7A080319932B7B09F8007C09F90004
:10071600F80A0319F90A7808F6007908F7000800BC
:100726007C08F7007B08F6000800F1003A30F0017B
:1007360071020318A42B30307102031CA42BF001A4
:10074600F00A700C0800F401F501701CB02B720859
:10075600F4070318F50A7308F5070310F20DF30DF5
:100766000310F10CF00C71087004031DA82B75081A
:10077600F1007408F0000800FB01F91FC92BF80905
:10078600F909F80A0319F90AFB01FB0A7808F000CF
:100796007908F1008E30F201F3007B08F400492459
:1007A6007008F8007108F9007208FA0008002008BD
:1007B600A6002108A7002208A8000310270D280D6F
:1007C600A900A908031DEB2BA001A101A2010800A5
:1007D6002308A6002408A7002508A8000310270D53
:1007E600280DAE00AE08031DFC2BA001A101A2013D
:1007F60008002E087B3EA9072208AE002508AE0693
:100806008030AE050730A117A417A501AA01AB01D8
:10081600AC01AD00201C172C230887240A128A116C
:100826000318250A031DAC070310A20CA10CA00C8B
:100836000310A30DA40DA50DAD0B0D2C0930AD00B5
:10084600201C2D2C230887240A128A110318250A36
:10085600031DAC070310A20CA10CA00C0310AC0CDA
:10086600AB0CAA0CAD0B232C2A08F0002B08F100C8
:100876002C08F2002908F3002E08F4004924700819
:10088600A0007108A1007208A200080073080319ED
:10089600512C720871047004031D5A2CF001F101E9
:1008A600F2010800F30A0310F20CF10CF00CFE3012
:1008B60072050319692C552CF30AF00A0319F10A7B
:1008C6000319F20A0310F20CF10CF00CFF3072055A
:1008D6000319732C5F2CF3030310F00DF10DF20DC9
:1008E600F11F6E2C731CF1130310F30C7308F70041
:1008F600F601F5017508F0047608F1047708F204AC
:100906007408031DF2170800AA0724080311031828
:10091600240A031DAB07250803110800A600213091
:10092600A5002008A00A84000A128A110D200A12C6
:100936008A11AB00AB080319592D2B08253A031968
:10094600A92C2608AC250A128A11942CA301D92CAD
:100956002508840083130008A700A801A50A280417
:10096600031DB92C3C30A7008030A8002808FF00E2
:10097600270884000A128A1103200A128A110038F5
:100986000319942C2808FF00270884000A128A11EC
:1009960003200A128A11FC00260884007C088313AF
:1009A6008000A70A0319A80AA60AB92C2008A00ADB
:1009B60084000A128A110D200A128A11AB00003A2D
:1009C6000319592D643A0319EF2C0D3A0319EF2C2C
:1009D6001A3A0319AB2C942C2508840083130008BB
:1009E600A700840A0008A800A50AA50AA81F022DC8
:1009F6000330A304A709A809A70A0319A80AAB018B
:100A0600AB0A03102B0D013E84000A128A110D2039
:100A16000A128A11FC000A128A110D200A128A1182
:100A2600FD002802031D192D7C082702031C202D1A
:100A3600AB0A2B08053A031D042D230803390319B5
:100A46002A2D260884002D3083138000A60A2B0841
:100A5600A400552D0A30F700F8010310240D013EBD
:100A660084000A128A110D200A128A11F0000A1255
:100A76008A110D200A128A11F1002808F3002708AE
:100A8600F2005E250A128A117108FA007008F90050
:100A960088250A128A117708303EAB002608AC2555
:100AA6000A128A11A403240F2D2D942C26088400E3
:100AB600831380010800F401F5017108700403191D
:100AC600832DF601F60AF11B6C2D0310F00DF10DC6
:100AD600652D0310F40DF50D71087302031D752DB8
:100AE60070087202031C7F2D7008F2027108031C45
:100AF600F303F30274140310F10CF00CF60B6C2DD7
:100B06007508F1007408F0000800780877040319E6
:100B1600A72DFB01FB0AF81B942D0310F70DF80D0A
:100B26008D2D78087A02031D9A2D77087902031C09
:100B3600A32D7708F9027808031CFA03FA020310BA
:100B4600F80CF70CFB0B942D7A08F8007908F700DF
:100B5600080084002B0883138000A60A0800603072
:100B66008316031788008901FF3003138500860169
:100B7600870188010330890089009F01FF309200B8
:100B8600C030831297009D000F3092141214121574
:100B9600881308138910F000F1010A128A11222322
:100BA6000A128A1103308312031388000A300817C9
:100BB6000813F000F1010A128A1122230A128A117F
:100BC600831203130A3008170813F000F1010A1202
:100BD6008A1122230A128A11831203130A30081774
:100BE6000813F000F1010A128A1122230A128A114F
:100BF60002308312031388002830081708130A12DC
:100C06008A1110230A128A110C300A128A11102333
:100C16000A128A110A128A11ED220A128A11063064
:100C26000A128A1110230A128A1183167030871746
:100C360007138F000C3099009030831298002030F3
:100C46008316980003178701F430F0000130F10095
:100C56000A128A1122230A128A11FF308312031301
:100C66008500803095000C30970030301215C40096
:100C7600C5018312031344080A128A118B220A1231
:100C86008A111430F000F1010A128A1122230A1285
:100C96008A1183120313C40A0319C50A4508803A48
:100CA600FF0080307F02031D5A2E3A304402031C97
:100CB6003C2E0D300A128A118B220A128A110A3032
:100CC6000A128A118B220A128A116130C600C701E4
:100CD6008312031346080A128A118B220A128A11FA
:100CE6001430F000F1010A128A1122230A128A1125
:100CF60083120313C60A0319C70A4708803AFF007E
:100D060080307F02031D892E7B304602031C6B2E2A
:100D16000D300A128A118B220A128A110A300A121F
:100D26008A118B220A128A11E830F0000330F10092
:100D36000A128A1122230A128A1131300A128A11E2
:100D4600A6220A128A110A128A11ED220A128A11A1
:100D5600D530831203139F009F149F18B02E1E08D0
:100D6600CC00CD010310CC0DCD0D0310CC0DCD0D57
:100D760083161E088312AF0006300310AF0CFF3E29
:100D8600031DC02E2F08CC042830A000A030A100DF
:100D96003B30A2004D08F9004C08F8000A128A11EF
:100DA600BF230A128A117808A3007908A4007A08DA
:100DB600A5000A128A11DA230A128A111830A00035
:100DC6004D08A2004C08A10031300A128A11912464
:100DD6000A128A11C8014808313E840000080A1226
:100DE6008A118B220A128A111130C80A4802031C82
:100DF600EE2EC830F000F1010A128A1122230A12DF
:100E06008A110D300A128A118B220A128A110A30AF
:100E16000A128A118B220A128A110B30A0000508C9
:100E2600A1003130A2010A128A1191240A128A11F4
:100E3600C9014908313E840000080A128A118B2232
:100E46000A128A110C30C90A4902031C1C2FC83029
:100E5600F000F1010A128A1122230A128A110D30BA
:100E66000A128A118B220A128A110A300A128A1170
:100E76008B220A128A114E300A128A11A6220A12EF
:100E86008A11243083120313A0004E30A1003130A2
:100E96000A128A1191240A128A11CA014A08313E9D
:100EA600840000080A128A118B220A128A110F3056
:100EB600CA0A4A02031C512FC830F000F1010A1277
:100EC6008A1122230A128A110D300A128A118B22E4
:100ED6000A128A110A300A128A118B220A128A1100
:100EE6004E300A128A113E230A128A1176088600AB
:100EF6004E300A128A11A6220A128A113030831243
:100F06000313A0004E30A10031300A128A11912439
:100F16000A128A11CB014B08313E840000080A12DE
:100F26008A118B220A128A110F30CB0A4B02031C3C
:100F36008E2FC830F000F1010A128A1122230A12FC
:100F46008A110D300A128A118B220A128A110A306E
:100F56000A128A118B220A128A114E300A128A113B
:100F66003E230A128A117708C3007608C200430896
:100F7600B0004208AF000310B00CAF0C0310B00C69
:100F8600AF0C2F089500420E30390C389700E83028
:100F9600F0000330F1000A128A1122230A128A1184
:100FA60000300A128A11E6220A128A1143300A1206
:100FB6008A11F8220A128A1140300A128A11E62290
:100FC6000A128A1140080A128A11F8220A128A1194
:100FD600C830F000F1010A128A1122230A128A117E
:100FE6000D300A128A118B220A128A110A300A124D
:0A0FF6008A118B220A128A11A62E1E
:04400E00D4E0FFFFFC
:00000001FF
