:100000000A128A11872B00308A000408840A8207AA
:1000100000344C344534443453343A34003450348E
:0800200057344D343A3400342A
:1006FA008C1E7D2B1A080800F0000C1E822B700835
:10070A0099000800FB01FC01BB01BC01BD01BE014F
:10071A0083010A128A11742CF401F501701C9B2BB7
:10072A007208F4070318F50A7308F5070310F20DA7
:10073A00F30D0310F10CF00C71087004031D932BD8
:10074A007508F1007408F0000800F401F501710859
:10075A0070040319CF2BF601F60AF11BB82B03100C
:10076A00F00DF10DB12B0310F40DF50D71087302A4
:10077A00031DC12B70087202031CCB2B7008F202F6
:10078A007108031CF303F30274140310F10CF00C48
:10079A00F60BB82B7508F1007408F0000800710810
:1007AA007004031DDA2B3030172C70037104031DFB
:1007BA00E02B3130172C7008023A7104031DE72B25
:1007CA003230172C7008033A7104031DEE2B3330B4
:1007DA00172C7008043A7104031DF52B3430172CBA
:1007EA007008053A7104031DFC2B3530172C70086C
:1007FA00063A7104031D032C3630172C7008073A89
:10080A007104031D0A2C3730172C7008083A71043A
:10081A00031D112C3830172C7008093A7104031D76
:10082A00192C3930FB00FC017C08F1007B08F00030
:10083A000800F5000915462CF5000911803E462CE2
:10084A000130091146240A128A110230F000F1011E
:10085A00582CF5000915750884000A128A1103201C
:10086A000A128A11003803190800750884000A124E
:10087A008A1103200A128A1146240A128A11F50AD9
:10088A00302CF400F001F00AF1015824740E0F39EB
:10089A008312031388008914891074080F39880099
:1008AA00891489100800F201F30173087102031D0B
:1008BA00602C72087002031C080069240A128A114B
:1008CA00F20A0319F30A5A2C013083160313810022
:1008DA000730831281000B1D702C0B110800203089
:1008EA00831603178800C03003138F00031789018A
:1008FA008B01FF30031385008601063087008801CB
:10090A0001308900FC3092000C3083129D00970060
:10091A00803095009B008C01073092008C08031DE3
:10092A00932C83168710071183120F30091189102F
:10093A000910F000F1010A128A1158240A128A11C8
:10094A0003308312031388000A3089148910F000D7
:10095A00F1010A128A1158240A128A118312031306
:10096A000A3089148910F000F1010A128A115824F8
:10097A000A128A11831203130A3089148910F000AB
:10098A00F1010A128A1158240A128A1102308312BA
:10099A00031388002830891489100A128A11462400
:1009AA000A128A110C300A128A1146240A128A1172
:1009BA000A128A1125240A128A1106300A128A1189
:1009CA0046240A128A118601803095000C3097005D
:1009DA00121583167030871707138F000C30990091
:1009EA0090308312980020308316980003178701ED
:1009FA00F430F0000130F1000A128A1158240A1268
:100A0A008A110130831203138500FF308500D53027
:100A1A009F009F149F180F2D1E08BB00BC010310D6
:100A2A00BB0DBC0D0310BB0DBC0D83161E08F700D1
:100A3A0006300310F70CFF3E031D1E2D77088312A4
:100A4A00BB043C08BE003B08BD000A30F000F101BF
:100A5A003E08F3003D08F2000A128A11AA230A127C
:100A6A008A117108B8007008B7006430F000F1010B
:100A7A003E08F3003D08F2000A128A11AA230A125C
:100A8A008A117108BA007008B900E830F000033022
:100A9A00F1003E08F3003D08F2000A128A11AA2367
:100AAA000A128A117108B5007008B4003508F100FD
:100ABA003408F0000A128A11D4230A128A11710822
:100ACA00A1007008A0003508F1003408F000F630E3
:100ADA00F200FF30F3000A128A1191230A128A11D6
:100AEA007008B9070318BA0A7108BA073A08F10078
:100AFA003908F0000A128A11D4230A128A117108DD
:100B0A00A7007008A6003508F1003408F0009C30F0
:100B1A00F200FF30F3000A128A1191230A128A1195
:100B2A007008F7007108F8003A08F1003908F00077
:100B3A00F630F200FF30F3000A128A1191230A12EA
:100B4A008A1170087707F90071080318710A780783
:100B5A00FA007908B7070318B80A7A08B8073808F4
:100B6A00F1003708F0000A128A11D4230A128A11F6
:100B7A007108A5007008A4003808F1003708F000D1
:100B8A00F630F200FF30F3000A128A1191230A129A
:100B9A008A117108B1007008B0003A08F1003908EA
:100BAA00F0009C30F200FF30F3000A128A11912300
:100BBA000A128A117008B0070318B10A7108B1073E
:100BCA003508F1003408F0001830F200FC30F30068
:100BDA000A128A1191230A128A117008B00703189F
:100BEA00B10A7108B1073D08B0070318B10A3E08F7
:100BFA00B1073108F1003008F0000A128A11D42333
:100C0A000A128A117108A9007008A80020080A129D
:100C1A008A1181230A128A1126080A128A1181234B
:100C2A000A128A1124080A128A1181230A128A11C5
:100C3A0028080A128A1181230A128A110D300A120F
:100C4A008A1181230A128A110A300A128A1181230F
:100C5A000A128A110508BD000A30BE01F000F1012E
:100C6A003E08F3003D08F2000A128A11AA230A126A
:100C7A008A117108B8007008B7000A30F000F10153
:100C8A003808F3003708F2000A128A11AA230A1256
:100C9A008A117108BA007008B9003A08F1003908D7
:100CAA00F0000A128A11D4230A128A117108A700C5
:100CBA007008A6003A08F1003908F000F630F20090
:100CCA00FF30F3000A128A1191230A128A1170085E
:100CDA00B7070318B80A7108B8073808F1003708C7
:100CEA00F0000A128A11D4230A128A117108A50087
:100CFA007008A4003808F1003708F000F630F20056
:100D0A00FF30F3000A128A1191230A128A1171081C
:100D1A00B1007008B0003A08F1003908F0009C30C0
:100D2A00F200FF30F3000A128A1191230A128A1183
:100D3A007008B0070318B10A7108B1073D08B00777
:100D4A000318B10A3E08B1073108F1003008F00073
:100D5A000A128A11D4230A128A117108A90070088A
:100D6A00A80026080A128A1181230A128A11240865
:100D7A000A128A1181230A128A1128080A128A1170
:100D8A0081230A128A110D300A128A1181230A124A
:100D9A008A110A300A128A1181230A128A110A1246
:100DAA008A117D230A128A11B6000A128A117D233A
:100DBA000A128A11B2000A128A117D230A128A11B2
:100DCA00B3000A128A117D230A128A11AA000A1292
:100DDA008A117D230A128A11AB000A128A117D2315
:100DEA000A128A11AC000A128A117D230A128A1188
:100DFA00AD003608F0006430F101F200F3010A1286
:100E0A008A1191230A128A117108A3007008A2009C
:100E1A003208F0000A30F101F200F3010A128A11D5
:100E2A0091230A128A117008A2070318A30A7108EB
:100E3A00A3073308A2070318A30A3030A20703182E
:100E4A00A30AEB30A3072A08F000E830F101F20008
:100E5A000330F3000A128A1191230A128A117108C7
:100E6A00AF007008AE002B08F0006430F101F20008
:100E7A00F3010A128A1191230A128A117008AE0725
:100E8A000318AF0A7108AF072C08F0000A30F10105
:100E9A00F200F3010A128A1191230A128A117008C8
:100EAA00AE070318AF0A7108AF072D08AE0703187B
:100EBA00AF0AB030AE070318AF0A2F30AF072208C7
:100ECA0086002F08F8002E08F7000310F80CF70C1C
:100EDA000310F80CF70C770895002E0E30390C38F1
:100EEA0097000A128A1125240A128A1133308312B2
:100EFA0003133602031C832F3230B6003608323A07
:100F0A00031D932F36303202031C8D2F3530B20069
:100F1A0036303302031C932F3530B30000300A12E7
:100F2A008A1121240A128A1101300A128A112E24E6
:100F3A000A128A1106300A128A1121240A128A1107
:100F4A0036080A128A111E240A128A1107300A1256
:100F5A008A1121240A128A1132080A128A111E24BD
:100F6A000A128A1108300A128A1121240A128A11D5
:100F7A0033080A128A111E240A128A1140300A12F0
:100F8A008A1121240A128A1107300A128A112E2480
:100F9A000A128A1145300A128A1121240A128A1168
:100FAA002A080A128A111E240A128A1146300A12C3
:100FBA008A1121240A128A112B080A128A111E2464
:100FCA000A128A1147300A128A1121240A128A1136
:100FDA002C080A128A111E240A128A1148300A128F
:100FEA008A1121240A128A112D080A128A111E2432
:060FFA000A128A110C2D01
:04400E00D4E0FFFFFC
:00000001FF
